{
  "_format": "hh-sol-artifact-1",
  "contractName": "PoolPair",
  "sourceName": "contracts/PoolPair.sol",
  "abi": [
    {
      "inputs": [
        {
          "internalType": "contract IERC20",
          "name": "_token0",
          "type": "address"
        },
        {
          "internalType": "contract IERC20",
          "name": "_token1",
          "type": "address"
        }
      ],
      "stateMutability": "nonpayable",
      "type": "constructor"
    },
    {
      "anonymous": false,
      "inputs": [
        {
          "indexed": true,
          "internalType": "address",
          "name": "owner",
          "type": "address"
        },
        {
          "indexed": true,
          "internalType": "address",
          "name": "spender",
          "type": "address"
        },
        {
          "indexed": false,
          "internalType": "uint256",
          "name": "value",
          "type": "uint256"
        }
      ],
      "name": "Approval",
      "type": "event"
    },
    {
      "anonymous": false,
      "inputs": [
        {
          "indexed": true,
          "internalType": "address",
          "name": "sender",
          "type": "address"
        },
        {
          "indexed": false,
          "internalType": "uint256",
          "name": "amount0",
          "type": "uint256"
        },
        {
          "indexed": false,
          "internalType": "uint256",
          "name": "amount1",
          "type": "uint256"
        },
        {
          "indexed": true,
          "internalType": "address",
          "name": "to",
          "type": "address"
        }
      ],
      "name": "Burn",
      "type": "event"
    },
    {
      "anonymous": false,
      "inputs": [
        {
          "indexed": true,
          "internalType": "address",
          "name": "sender",
          "type": "address"
        },
        {
          "indexed": false,
          "internalType": "uint256",
          "name": "amount0",
          "type": "uint256"
        },
        {
          "indexed": false,
          "internalType": "uint256",
          "name": "amount1",
          "type": "uint256"
        }
      ],
      "name": "Mint",
      "type": "event"
    },
    {
      "anonymous": false,
      "inputs": [
        {
          "indexed": true,
          "internalType": "address",
          "name": "sender",
          "type": "address"
        },
        {
          "indexed": false,
          "internalType": "contract IERC20",
          "name": "tokenIn",
          "type": "address"
        },
        {
          "indexed": false,
          "internalType": "uint256",
          "name": "tokenInAmount",
          "type": "uint256"
        },
        {
          "indexed": false,
          "internalType": "uint256",
          "name": "tokenOutAmount",
          "type": "uint256"
        }
      ],
      "name": "Swap",
      "type": "event"
    },
    {
      "anonymous": false,
      "inputs": [
        {
          "indexed": true,
          "internalType": "address",
          "name": "from",
          "type": "address"
        },
        {
          "indexed": true,
          "internalType": "address",
          "name": "to",
          "type": "address"
        },
        {
          "indexed": false,
          "internalType": "uint256",
          "name": "value",
          "type": "uint256"
        }
      ],
      "name": "Transfer",
      "type": "event"
    },
    {
      "inputs": [
        {
          "internalType": "uint256",
          "name": "amountADesired",
          "type": "uint256"
        },
        {
          "internalType": "uint256",
          "name": "amountBDesired",
          "type": "uint256"
        },
        {
          "internalType": "uint256",
          "name": "amountAMin",
          "type": "uint256"
        },
        {
          "internalType": "uint256",
          "name": "amountBMin",
          "type": "uint256"
        },
        {
          "internalType": "address",
          "name": "to",
          "type": "address"
        }
      ],
      "name": "addLiquidity",
      "outputs": [
        {
          "internalType": "uint256",
          "name": "amountA",
          "type": "uint256"
        },
        {
          "internalType": "uint256",
          "name": "amountB",
          "type": "uint256"
        },
        {
          "internalType": "uint256",
          "name": "liquidity",
          "type": "uint256"
        }
      ],
      "stateMutability": "nonpayable",
      "type": "function"
    },
    {
      "inputs": [
        {
          "internalType": "address",
          "name": "owner",
          "type": "address"
        },
        {
          "internalType": "address",
          "name": "spender",
          "type": "address"
        }
      ],
      "name": "allowance",
      "outputs": [
        {
          "internalType": "uint256",
          "name": "",
          "type": "uint256"
        }
      ],
      "stateMutability": "view",
      "type": "function"
    },
    {
      "inputs": [
        {
          "internalType": "address",
          "name": "spender",
          "type": "address"
        },
        {
          "internalType": "uint256",
          "name": "amount",
          "type": "uint256"
        }
      ],
      "name": "approve",
      "outputs": [
        {
          "internalType": "bool",
          "name": "",
          "type": "bool"
        }
      ],
      "stateMutability": "nonpayable",
      "type": "function"
    },
    {
      "inputs": [
        {
          "internalType": "address",
          "name": "account",
          "type": "address"
        }
      ],
      "name": "balanceOf",
      "outputs": [
        {
          "internalType": "uint256",
          "name": "",
          "type": "uint256"
        }
      ],
      "stateMutability": "view",
      "type": "function"
    },
    {
      "inputs": [],
      "name": "decimals",
      "outputs": [
        {
          "internalType": "uint8",
          "name": "",
          "type": "uint8"
        }
      ],
      "stateMutability": "view",
      "type": "function"
    },
    {
      "inputs": [
        {
          "internalType": "address",
          "name": "spender",
          "type": "address"
        },
        {
          "internalType": "uint256",
          "name": "subtractedValue",
          "type": "uint256"
        }
      ],
      "name": "decreaseAllowance",
      "outputs": [
        {
          "internalType": "bool",
          "name": "",
          "type": "bool"
        }
      ],
      "stateMutability": "nonpayable",
      "type": "function"
    },
    {
      "inputs": [],
      "name": "getReserves",
      "outputs": [
        {
          "internalType": "uint256",
          "name": "_reserve0",
          "type": "uint256"
        },
        {
          "internalType": "uint256",
          "name": "_reserve1",
          "type": "uint256"
        }
      ],
      "stateMutability": "view",
      "type": "function"
    },
    {
      "inputs": [
        {
          "internalType": "address",
          "name": "spender",
          "type": "address"
        },
        {
          "internalType": "uint256",
          "name": "addedValue",
          "type": "uint256"
        }
      ],
      "name": "increaseAllowance",
      "outputs": [
        {
          "internalType": "bool",
          "name": "",
          "type": "bool"
        }
      ],
      "stateMutability": "nonpayable",
      "type": "function"
    },
    {
      "inputs": [],
      "name": "lpTokenPerToken",
      "outputs": [
        {
          "internalType": "uint256",
          "name": "",
          "type": "uint256"
        }
      ],
      "stateMutability": "view",
      "type": "function"
    },
    {
      "inputs": [],
      "name": "name",
      "outputs": [
        {
          "internalType": "string",
          "name": "",
          "type": "string"
        }
      ],
      "stateMutability": "view",
      "type": "function"
    },
    {
      "inputs": [
        {
          "internalType": "uint256",
          "name": "liquidity",
          "type": "uint256"
        },
        {
          "internalType": "uint256",
          "name": "amountAMin",
          "type": "uint256"
        },
        {
          "internalType": "uint256",
          "name": "amountBMin",
          "type": "uint256"
        },
        {
          "internalType": "address",
          "name": "to",
          "type": "address"
        }
      ],
      "name": "removeLiquidity",
      "outputs": [],
      "stateMutability": "nonpayable",
      "type": "function"
    },
    {
      "inputs": [
        {
          "internalType": "contract IERC20",
          "name": "tokenIn",
          "type": "address"
        },
        {
          "internalType": "uint256",
          "name": "amount",
          "type": "uint256"
        },
        {
          "internalType": "uint256",
          "name": "minOut",
          "type": "uint256"
        }
      ],
      "name": "swap",
      "outputs": [
        {
          "internalType": "bool",
          "name": "",
          "type": "bool"
        }
      ],
      "stateMutability": "nonpayable",
      "type": "function"
    },
    {
      "inputs": [],
      "name": "symbol",
      "outputs": [
        {
          "internalType": "string",
          "name": "",
          "type": "string"
        }
      ],
      "stateMutability": "view",
      "type": "function"
    },
    {
      "inputs": [],
      "name": "token0",
      "outputs": [
        {
          "internalType": "contract IERC20",
          "name": "",
          "type": "address"
        }
      ],
      "stateMutability": "view",
      "type": "function"
    },
    {
      "inputs": [],
      "name": "token1",
      "outputs": [
        {
          "internalType": "contract IERC20",
          "name": "",
          "type": "address"
        }
      ],
      "stateMutability": "view",
      "type": "function"
    },
    {
      "inputs": [],
      "name": "totalSupply",
      "outputs": [
        {
          "internalType": "uint256",
          "name": "",
          "type": "uint256"
        }
      ],
      "stateMutability": "view",
      "type": "function"
    },
    {
      "inputs": [
        {
          "internalType": "address",
          "name": "to",
          "type": "address"
        },
        {
          "internalType": "uint256",
          "name": "amount",
          "type": "uint256"
        }
      ],
      "name": "transfer",
      "outputs": [
        {
          "internalType": "bool",
          "name": "",
          "type": "bool"
        }
      ],
      "stateMutability": "nonpayable",
      "type": "function"
    },
    {
      "inputs": [
        {
          "internalType": "address",
          "name": "from",
          "type": "address"
        },
        {
          "internalType": "address",
          "name": "to",
          "type": "address"
        },
        {
          "internalType": "uint256",
          "name": "amount",
          "type": "uint256"
        }
      ],
      "name": "transferFrom",
      "outputs": [
        {
          "internalType": "bool",
          "name": "",
          "type": "bool"
        }
      ],
      "stateMutability": "nonpayable",
      "type": "function"
    }
  ],
  "bytecode": "0x6080604052600060075560006008553480156200001b57600080fd5b506040516200382938038062003829833981810160405281019062000041919062000232565b6040518060400160405280600881526020017f4c5020546f6b656e0000000000000000000000000000000000000000000000008152506040518060400160405280600481526020017f52444c50000000000000000000000000000000000000000000000000000000008152508160039080519060200190620000c59291906200016b565b508060049080519060200190620000de9291906200016b565b50505081600560006101000a81548173ffffffffffffffffffffffffffffffffffffffff021916908373ffffffffffffffffffffffffffffffffffffffff16021790555080600660006101000a81548173ffffffffffffffffffffffffffffffffffffffff021916908373ffffffffffffffffffffffffffffffffffffffff16021790555050506200033a565b8280546200017990620002bb565b90600052602060002090601f0160209004810192826200019d5760008555620001e9565b82601f10620001b857805160ff1916838001178555620001e9565b82800160010185558215620001e9579182015b82811115620001e8578251825591602001919060010190620001cb565b5b509050620001f89190620001fc565b5090565b5b8082111562000217576000816000905550600101620001fd565b5090565b6000815190506200022c8162000320565b92915050565b600080604083850312156200024657600080fd5b600062000256858286016200021b565b925050602062000269858286016200021b565b9150509250929050565b600062000280826200029b565b9050919050565b6000620002948262000273565b9050919050565b600073ffffffffffffffffffffffffffffffffffffffff82169050919050565b60006002820490506001821680620002d457607f821691505b60208210811415620002eb57620002ea620002f1565b5b50919050565b7f4e487b7100000000000000000000000000000000000000000000000000000000600052602260045260246000fd5b6200032b8162000287565b81146200033757600080fd5b50565b6134df806200034a6000396000f3fe608060405234801561001057600080fd5b50600436106101165760003560e01c806395d89b41116100a2578063d21220a711610071578063d21220a714610320578063d8a68a281461033e578063dd62ed3e1461035c578063e0ab07721461038c578063e39b0eb5146103be57610116565b806395d89b41146102725780639f1d0f5914610290578063a457c2d7146102c0578063a9059cbb146102f057610116565b806318160ddd116100e957806318160ddd146101a657806323b872dd146101c4578063313ce567146101f4578063395093511461021257806370a082311461024257610116565b806306fdde031461011b5780630902f1ac14610139578063095ea7b3146101585780630dfe168114610188575b600080fd5b6101236103da565b6040516101309190612e20565b60405180910390f35b61014161046c565b60405161014f9291906130fd565b60405180910390f35b610172600480360381019061016d91906123f9565b61047d565b60405161017f9190612db3565b60405180910390f35b6101906104a0565b60405161019d9190612dce565b60405180910390f35b6101ae6104c6565b6040516101bb91906130e2565b60405180910390f35b6101de60048036038101906101d991906123aa565b6104d0565b6040516101eb9190612db3565b60405180910390f35b6101fc6104ff565b604051610209919061315d565b60405180910390f35b61022c600480360381019061022791906123f9565b610508565b6040516102399190612db3565b60405180910390f35b61025c60048036038101906102579190612345565b61053f565b60405161026991906130e2565b60405180910390f35b61027a610587565b6040516102879190612e20565b60405180910390f35b6102aa60048036038101906102a5919061245e565b610619565b6040516102b79190612db3565b60405180910390f35b6102da60048036038101906102d591906123f9565b610a91565b6040516102e79190612db3565b60405180910390f35b61030a600480360381019061030591906123f9565b610b08565b6040516103179190612db3565b60405180910390f35b610328610b2b565b6040516103359190612dce565b60405180910390f35b610346610b51565b60405161035391906130e2565b60405180910390f35b6103766004803603810190610371919061236e565b610b57565b60405161038391906130e2565b60405180910390f35b6103a660048036038101906103a19190612539565b610bde565b6040516103b593929190613126565b60405180910390f35b6103d860048036038101906103d391906124d6565b610cb7565b005b6060600380546103e99061337d565b80601f01602080910402602001604051908101604052809291908181526020018280546104159061337d565b80156104625780601f1061043757610100808354040283529160200191610462565b820191906000526020600020905b81548152906001019060200180831161044557829003601f168201915b5050505050905090565b600080600754915060085490509091565b600080610488610d61565b9050610495818585610d69565b600191505092915050565b600560009054906101000a900473ffffffffffffffffffffffffffffffffffffffff1681565b6000600254905090565b6000806104db610d61565b90506104e8858285610f34565b6104f3858585610fc0565b60019150509392505050565b6000600c905090565b600080610513610d61565b90506105348185856105258589610b57565b61052f91906131aa565b610d69565b600191505092915050565b60008060008373ffffffffffffffffffffffffffffffffffffffff1673ffffffffffffffffffffffffffffffffffffffff168152602001908152602001600020549050919050565b6060600480546105969061337d565b80601f01602080910402602001604051908101604052809291908181526020018280546105c29061337d565b801561060f5780601f106105e45761010080835404028352916020019161060f565b820191906000526020600020905b8154815290600101906020018083116105f257829003601f168201915b5050505050905090565b600080600061062661046c565b915091506000600560009054906101000a900473ffffffffffffffffffffffffffffffffffffffff1690506000600660009054906101000a900473ffffffffffffffffffffffffffffffffffffffff16905060008273ffffffffffffffffffffffffffffffffffffffff168973ffffffffffffffffffffffffffffffffffffffff1614806106df57508173ffffffffffffffffffffffffffffffffffffffff168973ffffffffffffffffffffffffffffffffffffffff16145b61071e576040517f08c379a000000000000000000000000000000000000000000000000000000000815260040161071590612f42565b60405180910390fd5b8273ffffffffffffffffffffffffffffffffffffffff168973ffffffffffffffffffffffffffffffffffffffff16141561081557878561075e91906131aa565b888561076a9190613231565b6107749190613200565b90508681116107b8576040517f08c379a00000000000000000000000000000000000000000000000000000000081526004016107af90613042565b60405180910390fd5b6107e533308a8673ffffffffffffffffffffffffffffffffffffffff16611241909392919063ffffffff16565b61081033828473ffffffffffffffffffffffffffffffffffffffff166112ca9092919063ffffffff16565b610909565b8173ffffffffffffffffffffffffffffffffffffffff168973ffffffffffffffffffffffffffffffffffffffff16141561090857878461085591906131aa565b88866108619190613231565b61086b9190613200565b90508681116108af576040517f08c379a00000000000000000000000000000000000000000000000000000000081526004016108a690613042565b60405180910390fd5b6108dc33308a8573ffffffffffffffffffffffffffffffffffffffff16611241909392919063ffffffff16565b61090733828573ffffffffffffffffffffffffffffffffffffffff166112ca9092919063ffffffff16565b5b5b60008373ffffffffffffffffffffffffffffffffffffffff166370a08231306040518263ffffffff1660e01b81526004016109449190612d38565b60206040518083038186803b15801561095c57600080fd5b505afa158015610970573d6000803e3d6000fd5b505050506040513d601f19601f8201168201806040525081019061099491906124ad565b905060008373ffffffffffffffffffffffffffffffffffffffff166370a08231306040518263ffffffff1660e01b81526004016109d19190612d38565b60206040518083038186803b1580156109e957600080fd5b505afa1580156109fd573d6000803e3d6000fd5b505050506040513d601f19601f82011682018060405250810190610a2191906124ad565b9050610a2d8282611350565b3373ffffffffffffffffffffffffffffffffffffffff167ffa2dda1cc1b86e41239702756b13effbc1a092b5c57e3ad320fbe4f3b13fe2358c8c86604051610a7793929190612de9565b60405180910390a260019750505050505050509392505050565b600080610a9c610d61565b90506000610aaa8286610b57565b905083811015610aef576040517f08c379a0000000000000000000000000000000000000000000000000000000008152600401610ae6906130a2565b60405180910390fd5b610afc8286868403610d69565b60019250505092915050565b600080610b13610d61565b9050610b20818585610fc0565b600191505092915050565b600660009054906101000a900473ffffffffffffffffffffffffffffffffffffffff1681565b60095481565b6000600160008473ffffffffffffffffffffffffffffffffffffffff1673ffffffffffffffffffffffffffffffffffffffff16815260200190815260200160002060008373ffffffffffffffffffffffffffffffffffffffff1673ffffffffffffffffffffffffffffffffffffffff16815260200190815260200160002054905092915050565b6000806000610bef88888888611362565b80935081945050506000600560009054906101000a900473ffffffffffffffffffffffffffffffffffffffff1690506000600660009054906101000a900473ffffffffffffffffffffffffffffffffffffffff169050610c723330878573ffffffffffffffffffffffffffffffffffffffff16611241909392919063ffffffff16565b610c9f3330868473ffffffffffffffffffffffffffffffffffffffff16611241909392919063ffffffff16565b610ca8866114a2565b92505050955095509592505050565b610cc2333086611769565b50600080610ccf83611791565b9150915084821015610d16576040517f08c379a0000000000000000000000000000000000000000000000000000000008152600401610d0d90612f22565b60405180910390fd5b83811015610d59576040517f08c379a0000000000000000000000000000000000000000000000000000000008152600401610d5090612f62565b60405180910390fd5b505050505050565b600033905090565b600073ffffffffffffffffffffffffffffffffffffffff168373ffffffffffffffffffffffffffffffffffffffff161415610dd9576040517f08c379a0000000000000000000000000000000000000000000000000000000008152600401610dd090612fe2565b60405180910390fd5b600073ffffffffffffffffffffffffffffffffffffffff168273ffffffffffffffffffffffffffffffffffffffff161415610e49576040517f08c379a0000000000000000000000000000000000000000000000000000000008152600401610e4090612e82565b60405180910390fd5b80600160008573ffffffffffffffffffffffffffffffffffffffff1673ffffffffffffffffffffffffffffffffffffffff16815260200190815260200160002060008473ffffffffffffffffffffffffffffffffffffffff1673ffffffffffffffffffffffffffffffffffffffff168152602001908152602001600020819055508173ffffffffffffffffffffffffffffffffffffffff168373ffffffffffffffffffffffffffffffffffffffff167f8c5be1e5ebec7d5bd14f71427d1e84f3dd0314c0f7b2291e5b200ac8c7c3b92583604051610f2791906130e2565b60405180910390a3505050565b6000610f408484610b57565b90507fffffffffffffffffffffffffffffffffffffffffffffffffffffffffffffffff8114610fba5781811015610fac576040517f08c379a0000000000000000000000000000000000000000000000000000000008152600401610fa390612ea2565b60405180910390fd5b610fb98484848403610d69565b5b50505050565b600073ffffffffffffffffffffffffffffffffffffffff168373ffffffffffffffffffffffffffffffffffffffff161415611030576040517f08c379a000000000000000000000000000000000000000000000000000000000815260040161102790612fc2565b60405180910390fd5b600073ffffffffffffffffffffffffffffffffffffffff168273ffffffffffffffffffffffffffffffffffffffff1614156110a0576040517f08c379a000000000000000000000000000000000000000000000000000000000815260040161109790612e42565b60405180910390fd5b6110ab838383611b88565b60008060008573ffffffffffffffffffffffffffffffffffffffff1673ffffffffffffffffffffffffffffffffffffffff16815260200190815260200160002054905081811015611131576040517f08c379a000000000000000000000000000000000000000000000000000000000815260040161112890612ec2565b60405180910390fd5b8181036000808673ffffffffffffffffffffffffffffffffffffffff1673ffffffffffffffffffffffffffffffffffffffff16815260200190815260200160002081905550816000808573ffffffffffffffffffffffffffffffffffffffff1673ffffffffffffffffffffffffffffffffffffffff16815260200190815260200160002060008282546111c491906131aa565b925050819055508273ffffffffffffffffffffffffffffffffffffffff168473ffffffffffffffffffffffffffffffffffffffff167fddf252ad1be2c89b69c2b068fc378daa952ba7f163c4a11628f55a4df523b3ef8460405161122891906130e2565b60405180910390a361123b848484611b8d565b50505050565b6112c4846323b872dd60e01b85858560405160240161126293929190612d53565b604051602081830303815290604052907bffffffffffffffffffffffffffffffffffffffffffffffffffffffff19166020820180517bffffffffffffffffffffffffffffffffffffffffffffffffffffffff8381831617835250505050611b92565b50505050565b61134b8363a9059cbb60e01b84846040516024016112e9929190612d8a565b604051602081830303815290604052907bffffffffffffffffffffffffffffffffffffffffffffffffffffffff19166020820180517bffffffffffffffffffffffffffffffffffffffffffffffffffffffff8381831617835250505050611b92565b505050565b81600781905550806008819055505050565b60008060008061137061046c565b915091506000821480156113845750600081145b156113985787878094508195505050611497565b60006113a5898484611c59565b905087811161140057858110156113f1576040517f08c379a00000000000000000000000000000000000000000000000000000000081526004016113e890612f62565b60405180910390fd5b88818095508196505050611495565b600061140d898486611c59565b905089811115611446577f4e487b7100000000000000000000000000000000000000000000000000000000600052600160045260246000fd5b87811015611489576040517f08c379a000000000000000000000000000000000000000000000000000000000815260040161148090612f22565b60405180910390fd5b80898096508197505050505b505b505094509492505050565b60008060006114af61046c565b915091506000600560009054906101000a900473ffffffffffffffffffffffffffffffffffffffff1673ffffffffffffffffffffffffffffffffffffffff166370a08231306040518263ffffffff1660e01b81526004016115109190612d38565b60206040518083038186803b15801561152857600080fd5b505afa15801561153c573d6000803e3d6000fd5b505050506040513d601f19601f8201168201806040525081019061156091906124ad565b90506000600660009054906101000a900473ffffffffffffffffffffffffffffffffffffffff1673ffffffffffffffffffffffffffffffffffffffff166370a08231306040518263ffffffff1660e01b81526004016115bf9190612d38565b60206040518083038186803b1580156115d757600080fd5b505afa1580156115eb573d6000803e3d6000fd5b505050506040513d601f19601f8201168201806040525081019061160f91906124ad565b905060006116268584611d0c90919063ffffffff16565b9050600061163d8584611d0c90919063ffffffff16565b905060006116496104c6565b9050600081141561169c5764e8d4a5100082846116669190613231565b6116709190613200565b975061167c8383611d56565b886116879190613200565b6009819055506116978989611d6f565b6116c0565b6116a68383611d56565b6009546116b39190613231565b97506116bf8989611d6f565b5b60008811611703576040517f08c379a00000000000000000000000000000000000000000000000000000000081526004016116fa90612f02565b60405180910390fd5b61170d8585611350565b3373ffffffffffffffffffffffffffffffffffffffff167f4c209b5fc8ad50758f13e2e1088ba56a560dff690a1c6fef26394f4c03821c4f84846040516117559291906130fd565b60405180910390a250505050505050919050565b60008030905061177a858285610f34565b611785858585610fc0565b60019150509392505050565b6000806000600560009054906101000a900473ffffffffffffffffffffffffffffffffffffffff1690506000600660009054906101000a900473ffffffffffffffffffffffffffffffffffffffff16905060006117ec6104c6565b905060006117f93061053f565b905060008473ffffffffffffffffffffffffffffffffffffffff166370a08231306040518263ffffffff1660e01b81526004016118369190612d38565b60206040518083038186803b15801561184e57600080fd5b505afa158015611862573d6000803e3d6000fd5b505050506040513d601f19601f8201168201806040525081019061188691906124ad565b905060008473ffffffffffffffffffffffffffffffffffffffff166370a08231306040518263ffffffff1660e01b81526004016118c39190612d38565b60206040518083038186803b1580156118db57600080fd5b505afa1580156118ef573d6000803e3d6000fd5b505050506040513d601f19601f8201168201806040525081019061191391906124ad565b90508382846119229190613231565b61192c9190613200565b975083818461193b9190613231565b6119459190613200565b96506000881180156119575750600087115b611996576040517f08c379a000000000000000000000000000000000000000000000000000000000815260040161198d90612f82565b60405180910390fd5b6119a03084611ecf565b6119cb89898873ffffffffffffffffffffffffffffffffffffffff166112ca9092919063ffffffff16565b6119f689888773ffffffffffffffffffffffffffffffffffffffff166112ca9092919063ffffffff16565b8573ffffffffffffffffffffffffffffffffffffffff166370a08231306040518263ffffffff1660e01b8152600401611a2f9190612d38565b60206040518083038186803b158015611a4757600080fd5b505afa158015611a5b573d6000803e3d6000fd5b505050506040513d601f19601f82011682018060405250810190611a7f91906124ad565b91508473ffffffffffffffffffffffffffffffffffffffff166370a08231306040518263ffffffff1660e01b8152600401611aba9190612d38565b60206040518083038186803b158015611ad257600080fd5b505afa158015611ae6573d6000803e3d6000fd5b505050506040513d601f19601f82011682018060405250810190611b0a91906124ad565b9050611b168282611350565b8873ffffffffffffffffffffffffffffffffffffffff163373ffffffffffffffffffffffffffffffffffffffff167fdccd412f0b1252819cb1fd330b93224ca42612892bb3f4f789976e6d819364968a8a604051611b759291906130fd565b60405180910390a3505050505050915091565b505050565b505050565b6000611bf4826040518060400160405280602081526020017f5361666545524332303a206c6f772d6c6576656c2063616c6c206661696c65648152508573ffffffffffffffffffffffffffffffffffffffff166120a69092919063ffffffff16565b9050600081511115611c545780806020019051810190611c149190612435565b611c53576040517f08c379a0000000000000000000000000000000000000000000000000000000008152600401611c4a90613022565b60405180910390fd5b5b505050565b6000808411611c9d576040517f08c379a0000000000000000000000000000000000000000000000000000000008152600401611c9490613062565b60405180910390fd5b600083118015611cad5750600082115b611cec576040517f08c379a0000000000000000000000000000000000000000000000000000000008152600401611ce390613082565b60405180910390fd5b828285611cf99190613231565b611d039190613200565b90509392505050565b6000611d4e83836040518060400160405280601e81526020017f536166654d6174683a207375627472616374696f6e206f766572666c6f7700008152506120be565b905092915050565b6000818310611d655781611d67565b825b905092915050565b600073ffffffffffffffffffffffffffffffffffffffff168273ffffffffffffffffffffffffffffffffffffffff161415611ddf576040517f08c379a0000000000000000000000000000000000000000000000000000000008152600401611dd6906130c2565b60405180910390fd5b611deb60008383611b88565b8060026000828254611dfd91906131aa565b92505081905550806000808473ffffffffffffffffffffffffffffffffffffffff1673ffffffffffffffffffffffffffffffffffffffff1681526020019081526020016000206000828254611e5291906131aa565b925050819055508173ffffffffffffffffffffffffffffffffffffffff16600073ffffffffffffffffffffffffffffffffffffffff167fddf252ad1be2c89b69c2b068fc378daa952ba7f163c4a11628f55a4df523b3ef83604051611eb791906130e2565b60405180910390a3611ecb60008383611b8d565b5050565b600073ffffffffffffffffffffffffffffffffffffffff168273ffffffffffffffffffffffffffffffffffffffff161415611f3f576040517f08c379a0000000000000000000000000000000000000000000000000000000008152600401611f3690612fa2565b60405180910390fd5b611f4b82600083611b88565b60008060008473ffffffffffffffffffffffffffffffffffffffff1673ffffffffffffffffffffffffffffffffffffffff16815260200190815260200160002054905081811015611fd1576040517f08c379a0000000000000000000000000000000000000000000000000000000008152600401611fc890612e62565b60405180910390fd5b8181036000808573ffffffffffffffffffffffffffffffffffffffff1673ffffffffffffffffffffffffffffffffffffffff168152602001908152602001600020819055508160026000828254612028919061328b565b92505081905550600073ffffffffffffffffffffffffffffffffffffffff168373ffffffffffffffffffffffffffffffffffffffff167fddf252ad1be2c89b69c2b068fc378daa952ba7f163c4a11628f55a4df523b3ef8460405161208d91906130e2565b60405180910390a36120a183600084611b8d565b505050565b60606120b58484600085612122565b90509392505050565b6000838311158290612106576040517f08c379a00000000000000000000000000000000000000000000000000000000081526004016120fd9190612e20565b60405180910390fd5b5060008385612115919061328b565b9050809150509392505050565b606082471015612167576040517f08c379a000000000000000000000000000000000000000000000000000000000815260040161215e90612ee2565b60405180910390fd5b61217085612236565b6121af576040517f08c379a00000000000000000000000000000000000000000000000000000000081526004016121a690613002565b60405180910390fd5b6000808673ffffffffffffffffffffffffffffffffffffffff1685876040516121d89190612d21565b60006040518083038185875af1925050503d8060008114612215576040519150601f19603f3d011682016040523d82523d6000602084013e61221a565b606091505b509150915061222a828286612275565b92505050949350505050565b6000808273ffffffffffffffffffffffffffffffffffffffff16803b806020016040519081016040528181526000908060200190933c51119050919050565b60608315612285578290506122d5565b6000835111156122985782518084602001fd5b816040517f08c379a00000000000000000000000000000000000000000000000000000000081526004016122cc9190612e20565b60405180910390fd5b9392505050565b6000813590506122eb8161344d565b92915050565b60008151905061230081613464565b92915050565b6000813590506123158161347b565b92915050565b60008135905061232a81613492565b92915050565b60008151905061233f81613492565b92915050565b60006020828403121561235757600080fd5b6000612365848285016122dc565b91505092915050565b6000806040838503121561238157600080fd5b600061238f858286016122dc565b92505060206123a0858286016122dc565b9150509250929050565b6000806000606084860312156123bf57600080fd5b60006123cd868287016122dc565b93505060206123de868287016122dc565b92505060406123ef8682870161231b565b9150509250925092565b6000806040838503121561240c57600080fd5b600061241a858286016122dc565b925050602061242b8582860161231b565b9150509250929050565b60006020828403121561244757600080fd5b6000612455848285016122f1565b91505092915050565b60008060006060848603121561247357600080fd5b600061248186828701612306565b93505060206124928682870161231b565b92505060406124a38682870161231b565b9150509250925092565b6000602082840312156124bf57600080fd5b60006124cd84828501612330565b91505092915050565b600080600080608085870312156124ec57600080fd5b60006124fa8782880161231b565b945050602061250b8782880161231b565b935050604061251c8782880161231b565b925050606061252d878288016122dc565b91505092959194509250565b600080600080600060a0868803121561255157600080fd5b600061255f8882890161231b565b95505060206125708882890161231b565b94505060406125818882890161231b565b93505060606125928882890161231b565b92505060806125a3888289016122dc565b9150509295509295909350565b6125b9816132bf565b82525050565b6125c8816132d1565b82525050565b60006125d982613178565b6125e3818561318e565b93506125f381856020860161334a565b80840191505092915050565b61260881613326565b82525050565b600061261982613183565b6126238185613199565b935061263381856020860161334a565b61263c8161343c565b840191505092915050565b6000612654602383613199565b91507f45524332303a207472616e7366657220746f20746865207a65726f206164647260008301527f65737300000000000000000000000000000000000000000000000000000000006020830152604082019050919050565b60006126ba602283613199565b91507f45524332303a206275726e20616d6f756e7420657863656564732062616c616e60008301527f63650000000000000000000000000000000000000000000000000000000000006020830152604082019050919050565b6000612720602283613199565b91507f45524332303a20617070726f766520746f20746865207a65726f20616464726560008301527f73730000000000000000000000000000000000000000000000000000000000006020830152604082019050919050565b6000612786601d83613199565b91507f45524332303a20696e73756666696369656e7420616c6c6f77616e63650000006000830152602082019050919050565b60006127c6602683613199565b91507f45524332303a207472616e7366657220616d6f756e742065786365656473206260008301527f616c616e636500000000000000000000000000000000000000000000000000006020830152604082019050919050565b600061282c602683613199565b91507f416464726573733a20696e73756666696369656e742062616c616e636520666f60008301527f722063616c6c00000000000000000000000000000000000000000000000000006020830152604082019050919050565b6000612892601d83613199565b91507f494e53554646494349454e545f4c49515549444954595f4d494e5445440000006000830152602082019050919050565b60006128d2601583613199565b91507f494e53554646494349454e545f415f414d4f554e5400000000000000000000006000830152602082019050919050565b6000612912601283613199565b91507f7377617020696e2077726f6e6720706f6f6c00000000000000000000000000006000830152602082019050919050565b6000612952601583613199565b91507f494e53554646494349454e545f425f414d4f554e5400000000000000000000006000830152602082019050919050565b6000612992601d83613199565b91507f494e53554646494349454e545f4c49515549444954595f4255524e45440000006000830152602082019050919050565b60006129d2602183613199565b91507f45524332303a206275726e2066726f6d20746865207a65726f2061646472657360008301527f73000000000000000000000000000000000000000000000000000000000000006020830152604082019050919050565b6000612a38602583613199565b91507f45524332303a207472616e736665722066726f6d20746865207a65726f20616460008301527f64726573730000000000000000000000000000000000000000000000000000006020830152604082019050919050565b6000612a9e602483613199565b91507f45524332303a20617070726f76652066726f6d20746865207a65726f2061646460008301527f72657373000000000000000000000000000000000000000000000000000000006020830152604082019050919050565b6000612b04601d83613199565b91507f416464726573733a2063616c6c20746f206e6f6e2d636f6e74726163740000006000830152602082019050919050565b6000612b44602a83613199565b91507f5361666545524332303a204552433230206f7065726174696f6e20646964206e60008301527f6f742073756363656564000000000000000000000000000000000000000000006020830152604082019050919050565b6000612baa601d83613199565b91507f7377617020646f7365206e6f74207374617469736669656420757365720000006000830152602082019050919050565b6000612bea601383613199565b91507f494e53554646494349454e545f414d4f554e54000000000000000000000000006000830152602082019050919050565b6000612c2a601683613199565b91507f494e53554646494349454e545f4c4951554944495459000000000000000000006000830152602082019050919050565b6000612c6a602583613199565b91507f45524332303a2064656372656173656420616c6c6f77616e63652062656c6f7760008301527f207a65726f0000000000000000000000000000000000000000000000000000006020830152604082019050919050565b6000612cd0601f83613199565b91507f45524332303a206d696e7420746f20746865207a65726f2061646472657373006000830152602082019050919050565b612d0c8161330f565b82525050565b612d1b81613319565b82525050565b6000612d2d82846125ce565b915081905092915050565b6000602082019050612d4d60008301846125b0565b92915050565b6000606082019050612d6860008301866125b0565b612d7560208301856125b0565b612d826040830184612d03565b949350505050565b6000604082019050612d9f60008301856125b0565b612dac6020830184612d03565b9392505050565b6000602082019050612dc860008301846125bf565b92915050565b6000602082019050612de360008301846125ff565b92915050565b6000606082019050612dfe60008301866125ff565b612e0b6020830185612d03565b612e186040830184612d03565b949350505050565b60006020820190508181036000830152612e3a818461260e565b905092915050565b60006020820190508181036000830152612e5b81612647565b9050919050565b60006020820190508181036000830152612e7b816126ad565b9050919050565b60006020820190508181036000830152612e9b81612713565b9050919050565b60006020820190508181036000830152612ebb81612779565b9050919050565b60006020820190508181036000830152612edb816127b9565b9050919050565b60006020820190508181036000830152612efb8161281f565b9050919050565b60006020820190508181036000830152612f1b81612885565b9050919050565b60006020820190508181036000830152612f3b816128c5565b9050919050565b60006020820190508181036000830152612f5b81612905565b9050919050565b60006020820190508181036000830152612f7b81612945565b9050919050565b60006020820190508181036000830152612f9b81612985565b9050919050565b60006020820190508181036000830152612fbb816129c5565b9050919050565b60006020820190508181036000830152612fdb81612a2b565b9050919050565b60006020820190508181036000830152612ffb81612a91565b9050919050565b6000602082019050818103600083015261301b81612af7565b9050919050565b6000602082019050818103600083015261303b81612b37565b9050919050565b6000602082019050818103600083015261305b81612b9d565b9050919050565b6000602082019050818103600083015261307b81612bdd565b9050919050565b6000602082019050818103600083015261309b81612c1d565b9050919050565b600060208201905081810360008301526130bb81612c5d565b9050919050565b600060208201905081810360008301526130db81612cc3565b9050919050565b60006020820190506130f76000830184612d03565b92915050565b60006040820190506131126000830185612d03565b61311f6020830184612d03565b9392505050565b600060608201905061313b6000830186612d03565b6131486020830185612d03565b6131556040830184612d03565b949350505050565b60006020820190506131726000830184612d12565b92915050565b600081519050919050565b600081519050919050565b600081905092915050565b600082825260208201905092915050565b60006131b58261330f565b91506131c08361330f565b9250827fffffffffffffffffffffffffffffffffffffffffffffffffffffffffffffffff038211156131f5576131f46133af565b5b828201905092915050565b600061320b8261330f565b91506132168361330f565b925082613226576132256133de565b5b828204905092915050565b600061323c8261330f565b91506132478361330f565b9250817fffffffffffffffffffffffffffffffffffffffffffffffffffffffffffffffff04831182151516156132805761327f6133af565b5b828202905092915050565b60006132968261330f565b91506132a18361330f565b9250828210156132b4576132b36133af565b5b828203905092915050565b60006132ca826132ef565b9050919050565b60008115159050919050565b60006132e8826132bf565b9050919050565b600073ffffffffffffffffffffffffffffffffffffffff82169050919050565b6000819050919050565b600060ff82169050919050565b600061333182613338565b9050919050565b6000613343826132ef565b9050919050565b60005b8381101561336857808201518184015260208101905061334d565b83811115613377576000848401525b50505050565b6000600282049050600182168061339557607f821691505b602082108114156133a9576133a861340d565b5b50919050565b7f4e487b7100000000000000000000000000000000000000000000000000000000600052601160045260246000fd5b7f4e487b7100000000000000000000000000000000000000000000000000000000600052601260045260246000fd5b7f4e487b7100000000000000000000000000000000000000000000000000000000600052602260045260246000fd5b6000601f19601f8301169050919050565b613456816132bf565b811461346157600080fd5b50565b61346d816132d1565b811461347857600080fd5b50565b613484816132dd565b811461348f57600080fd5b50565b61349b8161330f565b81146134a657600080fd5b5056fea2646970667358221220a2fd8b95148c470798d7734efd98ef43539c8cc401bfcfec9349a0022573a98a64736f6c63430008000033",
  "linkReferences": {},
  "deployedLinkReferences": {}
}