{
  "_format": "hh-sol-artifact-1",
  "contractName": "PoolPair",
  "sourceName": "contracts/PoolPair.sol",
  "abi": [
    {
      "inputs": [
        {
          "internalType": "contract IERC20",
          "name": "_token0",
          "type": "address"
        },
        {
          "internalType": "contract IERC20",
          "name": "_token1",
          "type": "address"
        }
      ],
      "stateMutability": "nonpayable",
      "type": "constructor"
    },
    {
      "anonymous": false,
      "inputs": [
        {
          "indexed": true,
          "internalType": "address",
          "name": "owner",
          "type": "address"
        },
        {
          "indexed": true,
          "internalType": "address",
          "name": "spender",
          "type": "address"
        },
        {
          "indexed": false,
          "internalType": "uint256",
          "name": "value",
          "type": "uint256"
        }
      ],
      "name": "Approval",
      "type": "event"
    },
    {
      "anonymous": false,
      "inputs": [
        {
          "indexed": true,
          "internalType": "address",
          "name": "sender",
          "type": "address"
        },
        {
          "indexed": false,
          "internalType": "uint256",
          "name": "amount0",
          "type": "uint256"
        },
        {
          "indexed": false,
          "internalType": "uint256",
          "name": "amount1",
          "type": "uint256"
        },
        {
          "indexed": true,
          "internalType": "address",
          "name": "to",
          "type": "address"
        }
      ],
      "name": "Burn",
      "type": "event"
    },
    {
      "anonymous": false,
      "inputs": [
        {
          "indexed": true,
          "internalType": "address",
          "name": "sender",
          "type": "address"
        },
        {
          "indexed": false,
          "internalType": "uint256",
          "name": "amount0",
          "type": "uint256"
        },
        {
          "indexed": false,
          "internalType": "uint256",
          "name": "amount1",
          "type": "uint256"
        }
      ],
      "name": "Mint",
      "type": "event"
    },
    {
      "anonymous": false,
      "inputs": [
        {
          "indexed": true,
          "internalType": "address",
          "name": "sender",
          "type": "address"
        },
        {
          "indexed": false,
          "internalType": "contract IERC20",
          "name": "tokenIn",
          "type": "address"
        },
        {
          "indexed": false,
          "internalType": "uint256",
          "name": "tokenInAmount",
          "type": "uint256"
        },
        {
          "indexed": false,
          "internalType": "uint256",
          "name": "tokenOutAmount",
          "type": "uint256"
        }
      ],
      "name": "Swap",
      "type": "event"
    },
    {
      "anonymous": false,
      "inputs": [
        {
          "indexed": true,
          "internalType": "address",
          "name": "from",
          "type": "address"
        },
        {
          "indexed": true,
          "internalType": "address",
          "name": "to",
          "type": "address"
        },
        {
          "indexed": false,
          "internalType": "uint256",
          "name": "value",
          "type": "uint256"
        }
      ],
      "name": "Transfer",
      "type": "event"
    },
    {
      "inputs": [
        {
          "internalType": "uint256",
          "name": "amountADesired",
          "type": "uint256"
        },
        {
          "internalType": "uint256",
          "name": "amountBDesired",
          "type": "uint256"
        },
        {
          "internalType": "uint256",
          "name": "amountAMin",
          "type": "uint256"
        },
        {
          "internalType": "uint256",
          "name": "amountBMin",
          "type": "uint256"
        },
        {
          "internalType": "address",
          "name": "to",
          "type": "address"
        }
      ],
      "name": "addLiquidity",
      "outputs": [
        {
          "internalType": "uint256",
          "name": "amountA",
          "type": "uint256"
        },
        {
          "internalType": "uint256",
          "name": "amountB",
          "type": "uint256"
        },
        {
          "internalType": "uint256",
          "name": "liquidity",
          "type": "uint256"
        }
      ],
      "stateMutability": "nonpayable",
      "type": "function"
    },
    {
      "inputs": [
        {
          "internalType": "address",
          "name": "owner",
          "type": "address"
        },
        {
          "internalType": "address",
          "name": "spender",
          "type": "address"
        }
      ],
      "name": "allowance",
      "outputs": [
        {
          "internalType": "uint256",
          "name": "",
          "type": "uint256"
        }
      ],
      "stateMutability": "view",
      "type": "function"
    },
    {
      "inputs": [
        {
          "internalType": "address",
          "name": "spender",
          "type": "address"
        },
        {
          "internalType": "uint256",
          "name": "amount",
          "type": "uint256"
        }
      ],
      "name": "approve",
      "outputs": [
        {
          "internalType": "bool",
          "name": "",
          "type": "bool"
        }
      ],
      "stateMutability": "nonpayable",
      "type": "function"
    },
    {
      "inputs": [
        {
          "internalType": "address",
          "name": "account",
          "type": "address"
        }
      ],
      "name": "balanceOf",
      "outputs": [
        {
          "internalType": "uint256",
          "name": "",
          "type": "uint256"
        }
      ],
      "stateMutability": "view",
      "type": "function"
    },
    {
      "inputs": [],
      "name": "decimals",
      "outputs": [
        {
          "internalType": "uint8",
          "name": "",
          "type": "uint8"
        }
      ],
      "stateMutability": "view",
      "type": "function"
    },
    {
      "inputs": [
        {
          "internalType": "address",
          "name": "spender",
          "type": "address"
        },
        {
          "internalType": "uint256",
          "name": "subtractedValue",
          "type": "uint256"
        }
      ],
      "name": "decreaseAllowance",
      "outputs": [
        {
          "internalType": "bool",
          "name": "",
          "type": "bool"
        }
      ],
      "stateMutability": "nonpayable",
      "type": "function"
    },
    {
      "inputs": [],
      "name": "getReserves",
      "outputs": [
        {
          "internalType": "uint256",
          "name": "_reserve0",
          "type": "uint256"
        },
        {
          "internalType": "uint256",
          "name": "_reserve1",
          "type": "uint256"
        }
      ],
      "stateMutability": "view",
      "type": "function"
    },
    {
      "inputs": [
        {
          "internalType": "address",
          "name": "spender",
          "type": "address"
        },
        {
          "internalType": "uint256",
          "name": "addedValue",
          "type": "uint256"
        }
      ],
      "name": "increaseAllowance",
      "outputs": [
        {
          "internalType": "bool",
          "name": "",
          "type": "bool"
        }
      ],
      "stateMutability": "nonpayable",
      "type": "function"
    },
    {
      "inputs": [],
      "name": "lpTokenPerToken",
      "outputs": [
        {
          "internalType": "uint256",
          "name": "",
          "type": "uint256"
        }
      ],
      "stateMutability": "view",
      "type": "function"
    },
    {
      "inputs": [],
      "name": "name",
      "outputs": [
        {
          "internalType": "string",
          "name": "",
          "type": "string"
        }
      ],
      "stateMutability": "view",
      "type": "function"
    },
    {
      "inputs": [
        {
          "internalType": "uint256",
          "name": "liquidity",
          "type": "uint256"
        },
        {
          "internalType": "uint256",
          "name": "amountAMin",
          "type": "uint256"
        },
        {
          "internalType": "uint256",
          "name": "amountBMin",
          "type": "uint256"
        },
        {
          "internalType": "address",
          "name": "to",
          "type": "address"
        }
      ],
      "name": "removeLiquidity",
      "outputs": [],
      "stateMutability": "nonpayable",
      "type": "function"
    },
    {
      "inputs": [
        {
          "internalType": "contract IERC20",
          "name": "tokenIn",
          "type": "address"
        },
        {
          "internalType": "uint256",
          "name": "amount",
          "type": "uint256"
        },
        {
          "internalType": "uint256",
          "name": "minOut",
          "type": "uint256"
        }
      ],
      "name": "swap",
      "outputs": [
        {
          "internalType": "bool",
          "name": "",
          "type": "bool"
        }
      ],
      "stateMutability": "nonpayable",
      "type": "function"
    },
    {
      "inputs": [],
      "name": "symbol",
      "outputs": [
        {
          "internalType": "string",
          "name": "",
          "type": "string"
        }
      ],
      "stateMutability": "view",
      "type": "function"
    },
    {
      "inputs": [],
      "name": "token0",
      "outputs": [
        {
          "internalType": "contract IERC20",
          "name": "",
          "type": "address"
        }
      ],
      "stateMutability": "view",
      "type": "function"
    },
    {
      "inputs": [],
      "name": "token1",
      "outputs": [
        {
          "internalType": "contract IERC20",
          "name": "",
          "type": "address"
        }
      ],
      "stateMutability": "view",
      "type": "function"
    },
    {
      "inputs": [],
      "name": "totalSupply",
      "outputs": [
        {
          "internalType": "uint256",
          "name": "",
          "type": "uint256"
        }
      ],
      "stateMutability": "view",
      "type": "function"
    },
    {
      "inputs": [
        {
          "internalType": "address",
          "name": "to",
          "type": "address"
        },
        {
          "internalType": "uint256",
          "name": "amount",
          "type": "uint256"
        }
      ],
      "name": "transfer",
      "outputs": [
        {
          "internalType": "bool",
          "name": "",
          "type": "bool"
        }
      ],
      "stateMutability": "nonpayable",
      "type": "function"
    },
    {
      "inputs": [
        {
          "internalType": "address",
          "name": "from",
          "type": "address"
        },
        {
          "internalType": "address",
          "name": "to",
          "type": "address"
        },
        {
          "internalType": "uint256",
          "name": "amount",
          "type": "uint256"
        }
      ],
      "name": "transferFrom",
      "outputs": [
        {
          "internalType": "bool",
          "name": "",
          "type": "bool"
        }
      ],
      "stateMutability": "nonpayable",
      "type": "function"
    }
  ],
  "bytecode": "0x6080604052600060075560006008553480156200001b57600080fd5b506040516200381338038062003813833981810160405281019062000041919062000232565b6040518060400160405280600881526020017f4c5020546f6b656e0000000000000000000000000000000000000000000000008152506040518060400160405280600481526020017f52444c50000000000000000000000000000000000000000000000000000000008152508160039080519060200190620000c59291906200016b565b508060049080519060200190620000de9291906200016b565b50505081600560006101000a81548173ffffffffffffffffffffffffffffffffffffffff021916908373ffffffffffffffffffffffffffffffffffffffff16021790555080600660006101000a81548173ffffffffffffffffffffffffffffffffffffffff021916908373ffffffffffffffffffffffffffffffffffffffff16021790555050506200033a565b8280546200017990620002bb565b90600052602060002090601f0160209004810192826200019d5760008555620001e9565b82601f10620001b857805160ff1916838001178555620001e9565b82800160010185558215620001e9579182015b82811115620001e8578251825591602001919060010190620001cb565b5b509050620001f89190620001fc565b5090565b5b8082111562000217576000816000905550600101620001fd565b5090565b6000815190506200022c8162000320565b92915050565b600080604083850312156200024657600080fd5b600062000256858286016200021b565b925050602062000269858286016200021b565b9150509250929050565b600062000280826200029b565b9050919050565b6000620002948262000273565b9050919050565b600073ffffffffffffffffffffffffffffffffffffffff82169050919050565b60006002820490506001821680620002d457607f821691505b60208210811415620002eb57620002ea620002f1565b5b50919050565b7f4e487b7100000000000000000000000000000000000000000000000000000000600052602260045260246000fd5b6200032b8162000287565b81146200033757600080fd5b50565b6134c9806200034a6000396000f3fe608060405234801561001057600080fd5b50600436106101165760003560e01c806395d89b41116100a2578063d21220a711610071578063d21220a714610320578063d8a68a281461033e578063dd62ed3e1461035c578063e0ab07721461038c578063e39b0eb5146103be57610116565b806395d89b41146102725780639f1d0f5914610290578063a457c2d7146102c0578063a9059cbb146102f057610116565b806318160ddd116100e957806318160ddd146101a657806323b872dd146101c4578063313ce567146101f4578063395093511461021257806370a082311461024257610116565b806306fdde031461011b5780630902f1ac14610139578063095ea7b3146101585780630dfe168114610188575b600080fd5b6101236103da565b6040516101309190612dea565b60405180910390f35b61014161046c565b60405161014f9291906130e7565b60405180910390f35b610172600480360381019061016d9190612337565b61047d565b60405161017f9190612d7d565b60405180910390f35b6101906104a0565b60405161019d9190612d98565b60405180910390f35b6101ae6104c6565b6040516101bb91906130cc565b60405180910390f35b6101de60048036038101906101d991906122e8565b6104d0565b6040516101eb9190612d7d565b60405180910390f35b6101fc6104ff565b6040516102099190613147565b60405180910390f35b61022c60048036038101906102279190612337565b610508565b6040516102399190612d7d565b60405180910390f35b61025c60048036038101906102579190612283565b61053f565b60405161026991906130cc565b60405180910390f35b61027a610587565b6040516102879190612dea565b60405180910390f35b6102aa60048036038101906102a5919061239c565b610619565b6040516102b79190612d7d565b60405180910390f35b6102da60048036038101906102d59190612337565b610973565b6040516102e79190612d7d565b60405180910390f35b61030a60048036038101906103059190612337565b6109ea565b6040516103179190612d7d565b60405180910390f35b610328610a0d565b6040516103359190612d98565b60405180910390f35b610346610a33565b60405161035391906130cc565b60405180910390f35b610376600480360381019061037191906122ac565b610a39565b60405161038391906130cc565b60405180910390f35b6103a660048036038101906103a19190612477565b610ac0565b6040516103b593929190613110565b60405180910390f35b6103d860048036038101906103d39190612414565b610b99565b005b6060600380546103e990613367565b80601f016020809104026020016040519081016040528092919081815260200182805461041590613367565b80156104625780601f1061043757610100808354040283529160200191610462565b820191906000526020600020905b81548152906001019060200180831161044557829003601f168201915b5050505050905090565b600080600754915060085490509091565b600080610488610c43565b9050610495818585610c4b565b600191505092915050565b600560009054906101000a900473ffffffffffffffffffffffffffffffffffffffff1681565b6000600254905090565b6000806104db610c43565b90506104e8858285610e16565b6104f3858585610ea2565b60019150509392505050565b6000600c905090565b600080610513610c43565b90506105348185856105258589610a39565b61052f9190613194565b610c4b565b600191505092915050565b60008060008373ffffffffffffffffffffffffffffffffffffffff1673ffffffffffffffffffffffffffffffffffffffff168152602001908152602001600020549050919050565b60606004805461059690613367565b80601f01602080910402602001604051908101604052809291908181526020018280546105c290613367565b801561060f5780601f106105e45761010080835404028352916020019161060f565b820191906000526020600020905b8154815290600101906020018083116105f257829003601f168201915b5050505050905090565b600080600061062661046c565b915091506000600560009054906101000a900473ffffffffffffffffffffffffffffffffffffffff1690506000600660009054906101000a900473ffffffffffffffffffffffffffffffffffffffff16905060008273ffffffffffffffffffffffffffffffffffffffff168973ffffffffffffffffffffffffffffffffffffffff1614806106df57508173ffffffffffffffffffffffffffffffffffffffff168973ffffffffffffffffffffffffffffffffffffffff16145b61071e576040517f08c379a000000000000000000000000000000000000000000000000000000000815260040161071590612f2c565b60405180910390fd5b8273ffffffffffffffffffffffffffffffffffffffff168973ffffffffffffffffffffffffffffffffffffffff16141561081557878561075e9190613194565b888561076a919061321b565b61077491906131ea565b90508681116107b8576040517f08c379a00000000000000000000000000000000000000000000000000000000081526004016107af9061302c565b60405180910390fd5b6107e533308a8673ffffffffffffffffffffffffffffffffffffffff16611123909392919063ffffffff16565b61081033828473ffffffffffffffffffffffffffffffffffffffff166111ac9092919063ffffffff16565b610909565b8173ffffffffffffffffffffffffffffffffffffffff168973ffffffffffffffffffffffffffffffffffffffff1614156109085787846108559190613194565b8886610861919061321b565b61086b91906131ea565b90508681116108af576040517f08c379a00000000000000000000000000000000000000000000000000000000081526004016108a69061302c565b60405180910390fd5b6108dc33308a8573ffffffffffffffffffffffffffffffffffffffff16611123909392919063ffffffff16565b61090733828573ffffffffffffffffffffffffffffffffffffffff166111ac9092919063ffffffff16565b5b5b610911611232565b3373ffffffffffffffffffffffffffffffffffffffff167ffa2dda1cc1b86e41239702756b13effbc1a092b5c57e3ad320fbe4f3b13fe2358a8a8460405161095b93929190612db3565b60405180910390a26001955050505050509392505050565b60008061097e610c43565b9050600061098c8286610a39565b9050838110156109d1576040517f08c379a00000000000000000000000000000000000000000000000000000000081526004016109c89061308c565b60405180910390fd5b6109de8286868403610c4b565b60019250505092915050565b6000806109f5610c43565b9050610a02818585610ea2565b600191505092915050565b600660009054906101000a900473ffffffffffffffffffffffffffffffffffffffff1681565b60095481565b6000600160008473ffffffffffffffffffffffffffffffffffffffff1673ffffffffffffffffffffffffffffffffffffffff16815260200190815260200160002060008373ffffffffffffffffffffffffffffffffffffffff1673ffffffffffffffffffffffffffffffffffffffff16815260200190815260200160002054905092915050565b6000806000610ad1888888886113ae565b80935081945050506000600560009054906101000a900473ffffffffffffffffffffffffffffffffffffffff1690506000600660009054906101000a900473ffffffffffffffffffffffffffffffffffffffff169050610b543330878573ffffffffffffffffffffffffffffffffffffffff16611123909392919063ffffffff16565b610b813330868473ffffffffffffffffffffffffffffffffffffffff16611123909392919063ffffffff16565b610b8a866114fa565b92505050955095509592505050565b610ba43330866117bf565b50600080610bb1836117e7565b9150915084821015610bf8576040517f08c379a0000000000000000000000000000000000000000000000000000000008152600401610bef90612f0c565b60405180910390fd5b83811015610c3b576040517f08c379a0000000000000000000000000000000000000000000000000000000008152600401610c3290612f4c565b60405180910390fd5b505050505050565b600033905090565b600073ffffffffffffffffffffffffffffffffffffffff168373ffffffffffffffffffffffffffffffffffffffff161415610cbb576040517f08c379a0000000000000000000000000000000000000000000000000000000008152600401610cb290612fcc565b60405180910390fd5b600073ffffffffffffffffffffffffffffffffffffffff168273ffffffffffffffffffffffffffffffffffffffff161415610d2b576040517f08c379a0000000000000000000000000000000000000000000000000000000008152600401610d2290612e4c565b60405180910390fd5b80600160008573ffffffffffffffffffffffffffffffffffffffff1673ffffffffffffffffffffffffffffffffffffffff16815260200190815260200160002060008473ffffffffffffffffffffffffffffffffffffffff1673ffffffffffffffffffffffffffffffffffffffff168152602001908152602001600020819055508173ffffffffffffffffffffffffffffffffffffffff168373ffffffffffffffffffffffffffffffffffffffff167f8c5be1e5ebec7d5bd14f71427d1e84f3dd0314c0f7b2291e5b200ac8c7c3b92583604051610e0991906130cc565b60405180910390a3505050565b6000610e228484610a39565b90507fffffffffffffffffffffffffffffffffffffffffffffffffffffffffffffffff8114610e9c5781811015610e8e576040517f08c379a0000000000000000000000000000000000000000000000000000000008152600401610e8590612e6c565b60405180910390fd5b610e9b8484848403610c4b565b5b50505050565b600073ffffffffffffffffffffffffffffffffffffffff168373ffffffffffffffffffffffffffffffffffffffff161415610f12576040517f08c379a0000000000000000000000000000000000000000000000000000000008152600401610f0990612fac565b60405180910390fd5b600073ffffffffffffffffffffffffffffffffffffffff168273ffffffffffffffffffffffffffffffffffffffff161415610f82576040517f08c379a0000000000000000000000000000000000000000000000000000000008152600401610f7990612e0c565b60405180910390fd5b610f8d838383611ac6565b60008060008573ffffffffffffffffffffffffffffffffffffffff1673ffffffffffffffffffffffffffffffffffffffff16815260200190815260200160002054905081811015611013576040517f08c379a000000000000000000000000000000000000000000000000000000000815260040161100a90612eac565b60405180910390fd5b8181036000808673ffffffffffffffffffffffffffffffffffffffff1673ffffffffffffffffffffffffffffffffffffffff16815260200190815260200160002081905550816000808573ffffffffffffffffffffffffffffffffffffffff1673ffffffffffffffffffffffffffffffffffffffff16815260200190815260200160002060008282546110a69190613194565b925050819055508273ffffffffffffffffffffffffffffffffffffffff168473ffffffffffffffffffffffffffffffffffffffff167fddf252ad1be2c89b69c2b068fc378daa952ba7f163c4a11628f55a4df523b3ef8460405161110a91906130cc565b60405180910390a361111d848484611acb565b50505050565b6111a6846323b872dd60e01b85858560405160240161114493929190612d1d565b604051602081830303815290604052907bffffffffffffffffffffffffffffffffffffffffffffffffffffffff19166020820180517bffffffffffffffffffffffffffffffffffffffffffffffffffffffff8381831617835250505050611ad0565b50505050565b61122d8363a9059cbb60e01b84846040516024016111cb929190612d54565b604051602081830303815290604052907bffffffffffffffffffffffffffffffffffffffffffffffffffffffff19166020820180517bffffffffffffffffffffffffffffffffffffffffffffffffffffffff8381831617835250505050611ad0565b505050565b6000600560009054906101000a900473ffffffffffffffffffffffffffffffffffffffff1690506000600660009054906101000a900473ffffffffffffffffffffffffffffffffffffffff16905060008273ffffffffffffffffffffffffffffffffffffffff166370a08231306040518263ffffffff1660e01b81526004016112bb9190612d02565b60206040518083038186803b1580156112d357600080fd5b505afa1580156112e7573d6000803e3d6000fd5b505050506040513d601f19601f8201168201806040525081019061130b91906123eb565b905060008273ffffffffffffffffffffffffffffffffffffffff166370a08231306040518263ffffffff1660e01b81526004016113489190612d02565b60206040518083038186803b15801561136057600080fd5b505afa158015611374573d6000803e3d6000fd5b505050506040513d601f19601f8201168201806040525081019061139891906123eb565b9050816007819055508060088190555050505050565b6000806000806113bc61046c565b915091506000821480156113d05750600081145b156113e457878780945081955050506114ef565b60006113f1898484611b97565b905087811161144c578581101561143d576040517f08c379a000000000000000000000000000000000000000000000000000000000815260040161143490612f4c565b60405180910390fd5b888180955081965050506114ed565b6000611459898486611b97565b90508981111561149e576040517f08c379a000000000000000000000000000000000000000000000000000000000815260040161149590612e8c565b60405180910390fd5b878110156114e1576040517f08c379a00000000000000000000000000000000000000000000000000000000081526004016114d890612f0c565b60405180910390fd5b80898096508197505050505b505b505094509492505050565b600080600061150761046c565b915091506000600560009054906101000a900473ffffffffffffffffffffffffffffffffffffffff1673ffffffffffffffffffffffffffffffffffffffff166370a08231306040518263ffffffff1660e01b81526004016115689190612d02565b60206040518083038186803b15801561158057600080fd5b505afa158015611594573d6000803e3d6000fd5b505050506040513d601f19601f820116820180604052508101906115b891906123eb565b90506000600660009054906101000a900473ffffffffffffffffffffffffffffffffffffffff1673ffffffffffffffffffffffffffffffffffffffff166370a08231306040518263ffffffff1660e01b81526004016116179190612d02565b60206040518083038186803b15801561162f57600080fd5b505afa158015611643573d6000803e3d6000fd5b505050506040513d601f19601f8201168201806040525081019061166791906123eb565b9050600061167e8584611c4a90919063ffffffff16565b905060006116958584611c4a90919063ffffffff16565b905060006116a16104c6565b905060008114156116f45764e8d4a5100082846116be919061321b565b6116c891906131ea565b97506116d48383611c94565b886116df91906131ea565b6009819055506116ef8989611cad565b611718565b6116fe8383611c94565b60095461170b919061321b565b97506117178989611cad565b5b6000881161175b576040517f08c379a000000000000000000000000000000000000000000000000000000000815260040161175290612eec565b60405180910390fd5b611763611232565b3373ffffffffffffffffffffffffffffffffffffffff167f4c209b5fc8ad50758f13e2e1088ba56a560dff690a1c6fef26394f4c03821c4f84846040516117ab9291906130e7565b60405180910390a250505050505050919050565b6000803090506117d0858285610e16565b6117db858585610ea2565b60019150509392505050565b6000806000600560009054906101000a900473ffffffffffffffffffffffffffffffffffffffff1690506000600660009054906101000a900473ffffffffffffffffffffffffffffffffffffffff16905060006118426104c6565b9050600061184f3061053f565b905060008473ffffffffffffffffffffffffffffffffffffffff166370a08231306040518263ffffffff1660e01b815260040161188c9190612d02565b60206040518083038186803b1580156118a457600080fd5b505afa1580156118b8573d6000803e3d6000fd5b505050506040513d601f19601f820116820180604052508101906118dc91906123eb565b905060008473ffffffffffffffffffffffffffffffffffffffff166370a08231306040518263ffffffff1660e01b81526004016119199190612d02565b60206040518083038186803b15801561193157600080fd5b505afa158015611945573d6000803e3d6000fd5b505050506040513d601f19601f8201168201806040525081019061196991906123eb565b9050838284611978919061321b565b61198291906131ea565b9750838184611991919061321b565b61199b91906131ea565b96506000881180156119ad5750600087115b6119ec576040517f08c379a00000000000000000000000000000000000000000000000000000000081526004016119e390612f6c565b60405180910390fd5b6119f63084611e0d565b611a2189898873ffffffffffffffffffffffffffffffffffffffff166111ac9092919063ffffffff16565b611a4c89888773ffffffffffffffffffffffffffffffffffffffff166111ac9092919063ffffffff16565b611a54611232565b8873ffffffffffffffffffffffffffffffffffffffff163373ffffffffffffffffffffffffffffffffffffffff167fdccd412f0b1252819cb1fd330b93224ca42612892bb3f4f789976e6d819364968a8a604051611ab39291906130e7565b60405180910390a3505050505050915091565b505050565b505050565b6000611b32826040518060400160405280602081526020017f5361666545524332303a206c6f772d6c6576656c2063616c6c206661696c65648152508573ffffffffffffffffffffffffffffffffffffffff16611fe49092919063ffffffff16565b9050600081511115611b925780806020019051810190611b529190612373565b611b91576040517f08c379a0000000000000000000000000000000000000000000000000000000008152600401611b889061300c565b60405180910390fd5b5b505050565b6000808411611bdb576040517f08c379a0000000000000000000000000000000000000000000000000000000008152600401611bd29061304c565b60405180910390fd5b600083118015611beb5750600082115b611c2a576040517f08c379a0000000000000000000000000000000000000000000000000000000008152600401611c219061306c565b60405180910390fd5b828285611c37919061321b565b611c4191906131ea565b90509392505050565b6000611c8c83836040518060400160405280601e81526020017f536166654d6174683a207375627472616374696f6e206f766572666c6f770000815250611ffc565b905092915050565b6000818310611ca35781611ca5565b825b905092915050565b600073ffffffffffffffffffffffffffffffffffffffff168273ffffffffffffffffffffffffffffffffffffffff161415611d1d576040517f08c379a0000000000000000000000000000000000000000000000000000000008152600401611d14906130ac565b60405180910390fd5b611d2960008383611ac6565b8060026000828254611d3b9190613194565b92505081905550806000808473ffffffffffffffffffffffffffffffffffffffff1673ffffffffffffffffffffffffffffffffffffffff1681526020019081526020016000206000828254611d909190613194565b925050819055508173ffffffffffffffffffffffffffffffffffffffff16600073ffffffffffffffffffffffffffffffffffffffff167fddf252ad1be2c89b69c2b068fc378daa952ba7f163c4a11628f55a4df523b3ef83604051611df591906130cc565b60405180910390a3611e0960008383611acb565b5050565b600073ffffffffffffffffffffffffffffffffffffffff168273ffffffffffffffffffffffffffffffffffffffff161415611e7d576040517f08c379a0000000000000000000000000000000000000000000000000000000008152600401611e7490612f8c565b60405180910390fd5b611e8982600083611ac6565b60008060008473ffffffffffffffffffffffffffffffffffffffff1673ffffffffffffffffffffffffffffffffffffffff16815260200190815260200160002054905081811015611f0f576040517f08c379a0000000000000000000000000000000000000000000000000000000008152600401611f0690612e2c565b60405180910390fd5b8181036000808573ffffffffffffffffffffffffffffffffffffffff1673ffffffffffffffffffffffffffffffffffffffff168152602001908152602001600020819055508160026000828254611f669190613275565b92505081905550600073ffffffffffffffffffffffffffffffffffffffff168373ffffffffffffffffffffffffffffffffffffffff167fddf252ad1be2c89b69c2b068fc378daa952ba7f163c4a11628f55a4df523b3ef84604051611fcb91906130cc565b60405180910390a3611fdf83600084611acb565b505050565b6060611ff38484600085612060565b90509392505050565b6000838311158290612044576040517f08c379a000000000000000000000000000000000000000000000000000000000815260040161203b9190612dea565b60405180910390fd5b50600083856120539190613275565b9050809150509392505050565b6060824710156120a5576040517f08c379a000000000000000000000000000000000000000000000000000000000815260040161209c90612ecc565b60405180910390fd5b6120ae85612174565b6120ed576040517f08c379a00000000000000000000000000000000000000000000000000000000081526004016120e490612fec565b60405180910390fd5b6000808673ffffffffffffffffffffffffffffffffffffffff1685876040516121169190612ceb565b60006040518083038185875af1925050503d8060008114612153576040519150601f19603f3d011682016040523d82523d6000602084013e612158565b606091505b50915091506121688282866121b3565b92505050949350505050565b6000808273ffffffffffffffffffffffffffffffffffffffff16803b806020016040519081016040528181526000908060200190933c51119050919050565b606083156121c357829050612213565b6000835111156121d65782518084602001fd5b816040517f08c379a000000000000000000000000000000000000000000000000000000000815260040161220a9190612dea565b60405180910390fd5b9392505050565b60008135905061222981613437565b92915050565b60008151905061223e8161344e565b92915050565b60008135905061225381613465565b92915050565b6000813590506122688161347c565b92915050565b60008151905061227d8161347c565b92915050565b60006020828403121561229557600080fd5b60006122a38482850161221a565b91505092915050565b600080604083850312156122bf57600080fd5b60006122cd8582860161221a565b92505060206122de8582860161221a565b9150509250929050565b6000806000606084860312156122fd57600080fd5b600061230b8682870161221a565b935050602061231c8682870161221a565b925050604061232d86828701612259565b9150509250925092565b6000806040838503121561234a57600080fd5b60006123588582860161221a565b925050602061236985828601612259565b9150509250929050565b60006020828403121561238557600080fd5b60006123938482850161222f565b91505092915050565b6000806000606084860312156123b157600080fd5b60006123bf86828701612244565b93505060206123d086828701612259565b92505060406123e186828701612259565b9150509250925092565b6000602082840312156123fd57600080fd5b600061240b8482850161226e565b91505092915050565b6000806000806080858703121561242a57600080fd5b600061243887828801612259565b945050602061244987828801612259565b935050604061245a87828801612259565b925050606061246b8782880161221a565b91505092959194509250565b600080600080600060a0868803121561248f57600080fd5b600061249d88828901612259565b95505060206124ae88828901612259565b94505060406124bf88828901612259565b93505060606124d088828901612259565b92505060806124e18882890161221a565b9150509295509295909350565b6124f7816132a9565b82525050565b612506816132bb565b82525050565b600061251782613162565b6125218185613178565b9350612531818560208601613334565b80840191505092915050565b61254681613310565b82525050565b60006125578261316d565b6125618185613183565b9350612571818560208601613334565b61257a81613426565b840191505092915050565b6000612592602383613183565b91507f45524332303a207472616e7366657220746f20746865207a65726f206164647260008301527f65737300000000000000000000000000000000000000000000000000000000006020830152604082019050919050565b60006125f8602283613183565b91507f45524332303a206275726e20616d6f756e7420657863656564732062616c616e60008301527f63650000000000000000000000000000000000000000000000000000000000006020830152604082019050919050565b600061265e602283613183565b91507f45524332303a20617070726f766520746f20746865207a65726f20616464726560008301527f73730000000000000000000000000000000000000000000000000000000000006020830152604082019050919050565b60006126c4601d83613183565b91507f45524332303a20696e73756666696369656e7420616c6c6f77616e63650000006000830152602082019050919050565b6000612704604683613183565b91507f626f746820616d6f756e744120616e6420616d6f756e7442206973206c65737360008301527f207468616e2075736572206578706563742c207472616e73616374696f6e206960208301527f6e76616c696400000000000000000000000000000000000000000000000000006040830152606082019050919050565b6000612790602683613183565b91507f45524332303a207472616e7366657220616d6f756e742065786365656473206260008301527f616c616e636500000000000000000000000000000000000000000000000000006020830152604082019050919050565b60006127f6602683613183565b91507f416464726573733a20696e73756666696369656e742062616c616e636520666f60008301527f722063616c6c00000000000000000000000000000000000000000000000000006020830152604082019050919050565b600061285c601d83613183565b91507f494e53554646494349454e545f4c49515549444954595f4d494e5445440000006000830152602082019050919050565b600061289c601583613183565b91507f494e53554646494349454e545f415f414d4f554e5400000000000000000000006000830152602082019050919050565b60006128dc601283613183565b91507f7377617020696e2077726f6e6720706f6f6c00000000000000000000000000006000830152602082019050919050565b600061291c601583613183565b91507f494e53554646494349454e545f425f414d4f554e5400000000000000000000006000830152602082019050919050565b600061295c601d83613183565b91507f494e53554646494349454e545f4c49515549444954595f4255524e45440000006000830152602082019050919050565b600061299c602183613183565b91507f45524332303a206275726e2066726f6d20746865207a65726f2061646472657360008301527f73000000000000000000000000000000000000000000000000000000000000006020830152604082019050919050565b6000612a02602583613183565b91507f45524332303a207472616e736665722066726f6d20746865207a65726f20616460008301527f64726573730000000000000000000000000000000000000000000000000000006020830152604082019050919050565b6000612a68602483613183565b91507f45524332303a20617070726f76652066726f6d20746865207a65726f2061646460008301527f72657373000000000000000000000000000000000000000000000000000000006020830152604082019050919050565b6000612ace601d83613183565b91507f416464726573733a2063616c6c20746f206e6f6e2d636f6e74726163740000006000830152602082019050919050565b6000612b0e602a83613183565b91507f5361666545524332303a204552433230206f7065726174696f6e20646964206e60008301527f6f742073756363656564000000000000000000000000000000000000000000006020830152604082019050919050565b6000612b74601d83613183565b91507f7377617020646f7365206e6f74207374617469736669656420757365720000006000830152602082019050919050565b6000612bb4601383613183565b91507f494e53554646494349454e545f414d4f554e54000000000000000000000000006000830152602082019050919050565b6000612bf4601683613183565b91507f494e53554646494349454e545f4c4951554944495459000000000000000000006000830152602082019050919050565b6000612c34602583613183565b91507f45524332303a2064656372656173656420616c6c6f77616e63652062656c6f7760008301527f207a65726f0000000000000000000000000000000000000000000000000000006020830152604082019050919050565b6000612c9a601f83613183565b91507f45524332303a206d696e7420746f20746865207a65726f2061646472657373006000830152602082019050919050565b612cd6816132f9565b82525050565b612ce581613303565b82525050565b6000612cf7828461250c565b915081905092915050565b6000602082019050612d1760008301846124ee565b92915050565b6000606082019050612d3260008301866124ee565b612d3f60208301856124ee565b612d4c6040830184612ccd565b949350505050565b6000604082019050612d6960008301856124ee565b612d766020830184612ccd565b9392505050565b6000602082019050612d9260008301846124fd565b92915050565b6000602082019050612dad600083018461253d565b92915050565b6000606082019050612dc8600083018661253d565b612dd56020830185612ccd565b612de26040830184612ccd565b949350505050565b60006020820190508181036000830152612e04818461254c565b905092915050565b60006020820190508181036000830152612e2581612585565b9050919050565b60006020820190508181036000830152612e45816125eb565b9050919050565b60006020820190508181036000830152612e6581612651565b9050919050565b60006020820190508181036000830152612e85816126b7565b9050919050565b60006020820190508181036000830152612ea5816126f7565b9050919050565b60006020820190508181036000830152612ec581612783565b9050919050565b60006020820190508181036000830152612ee5816127e9565b9050919050565b60006020820190508181036000830152612f058161284f565b9050919050565b60006020820190508181036000830152612f258161288f565b9050919050565b60006020820190508181036000830152612f45816128cf565b9050919050565b60006020820190508181036000830152612f658161290f565b9050919050565b60006020820190508181036000830152612f858161294f565b9050919050565b60006020820190508181036000830152612fa58161298f565b9050919050565b60006020820190508181036000830152612fc5816129f5565b9050919050565b60006020820190508181036000830152612fe581612a5b565b9050919050565b6000602082019050818103600083015261300581612ac1565b9050919050565b6000602082019050818103600083015261302581612b01565b9050919050565b6000602082019050818103600083015261304581612b67565b9050919050565b6000602082019050818103600083015261306581612ba7565b9050919050565b6000602082019050818103600083015261308581612be7565b9050919050565b600060208201905081810360008301526130a581612c27565b9050919050565b600060208201905081810360008301526130c581612c8d565b9050919050565b60006020820190506130e16000830184612ccd565b92915050565b60006040820190506130fc6000830185612ccd565b6131096020830184612ccd565b9392505050565b60006060820190506131256000830186612ccd565b6131326020830185612ccd565b61313f6040830184612ccd565b949350505050565b600060208201905061315c6000830184612cdc565b92915050565b600081519050919050565b600081519050919050565b600081905092915050565b600082825260208201905092915050565b600061319f826132f9565b91506131aa836132f9565b9250827fffffffffffffffffffffffffffffffffffffffffffffffffffffffffffffffff038211156131df576131de613399565b5b828201905092915050565b60006131f5826132f9565b9150613200836132f9565b9250826132105761320f6133c8565b5b828204905092915050565b6000613226826132f9565b9150613231836132f9565b9250817fffffffffffffffffffffffffffffffffffffffffffffffffffffffffffffffff048311821515161561326a57613269613399565b5b828202905092915050565b6000613280826132f9565b915061328b836132f9565b92508282101561329e5761329d613399565b5b828203905092915050565b60006132b4826132d9565b9050919050565b60008115159050919050565b60006132d2826132a9565b9050919050565b600073ffffffffffffffffffffffffffffffffffffffff82169050919050565b6000819050919050565b600060ff82169050919050565b600061331b82613322565b9050919050565b600061332d826132d9565b9050919050565b60005b83811015613352578082015181840152602081019050613337565b83811115613361576000848401525b50505050565b6000600282049050600182168061337f57607f821691505b60208210811415613393576133926133f7565b5b50919050565b7f4e487b7100000000000000000000000000000000000000000000000000000000600052601160045260246000fd5b7f4e487b7100000000000000000000000000000000000000000000000000000000600052601260045260246000fd5b7f4e487b7100000000000000000000000000000000000000000000000000000000600052602260045260246000fd5b6000601f19601f8301169050919050565b613440816132a9565b811461344b57600080fd5b50565b613457816132bb565b811461346257600080fd5b50565b61346e816132c7565b811461347957600080fd5b50565b613485816132f9565b811461349057600080fd5b5056fea26469706673582212207d475786b7da2a396d0666465dd22bb1e13c036518dc6a1aad2cbf1f339d112c64736f6c63430008000033",
  "linkReferences": {},
  "deployedLinkReferences": {}
}